{
  "_format": "hh-sol-artifact-1",
  "contractName": "P2PConveyance",
  "sourceName": "contracts/P2PConveyance.sol",
  "abi": [
    {
      "inputs": [],
      "stateMutability": "nonpayable",
      "type": "constructor"
    },
    {
      "anonymous": false,
      "inputs": [
        {
          "indexed": false,
          "internalType": "uint256",
          "name": "id",
          "type": "uint256"
        },
        {
          "indexed": false,
          "internalType": "string",
          "name": "restaurantName",
          "type": "string"
        },
        {
          "indexed": false,
          "internalType": "string",
          "name": "customerName",
          "type": "string"
        },
        {
          "indexed": false,
          "internalType": "string",
          "name": "deliveryAgentName",
          "type": "string"
        },
        {
          "indexed": false,
          "internalType": "bool",
          "name": "hasBeenDelivered",
          "type": "bool"
        }
      ],
      "name": "orderStatusChanged",
      "type": "event"
    },
    {
      "inputs": [
        {
          "internalType": "uint256",
          "name": "id",
          "type": "uint256"
        }
      ],
      "name": "confirmOrderDelivery",
      "outputs": [],
      "stateMutability": "payable",
      "type": "function"
    },
    {
      "inputs": [
        {
          "components": [
            {
              "internalType": "string",
              "name": "itemName",
              "type": "string"
            },
            {
              "internalType": "uint256",
              "name": "itemQuantity",
              "type": "uint256"
            },
            {
              "internalType": "uint256",
              "name": "itemPrice",
              "type": "uint256"
            }
          ],
          "internalType": "struct P2PConveyance.Item[]",
          "name": "items",
          "type": "tuple[]"
        },
        {
          "components": [
            {
              "internalType": "string",
              "name": "name",
              "type": "string"
            },
            {
              "internalType": "string",
              "name": "lat",
              "type": "string"
            },
            {
              "internalType": "string",
              "name": "long",
              "type": "string"
            },
            {
              "internalType": "string",
              "name": "contact",
              "type": "string"
            }
          ],
          "internalType": "struct P2PConveyance.Restaurant",
          "name": "restaurant",
          "type": "tuple"
        },
        {
          "components": [
            {
              "internalType": "string",
              "name": "name",
              "type": "string"
            },
            {
              "internalType": "string",
              "name": "lat",
              "type": "string"
            },
            {
              "internalType": "string",
              "name": "long",
              "type": "string"
            },
            {
              "internalType": "string",
              "name": "contact",
              "type": "string"
            }
          ],
          "internalType": "struct P2PConveyance.Customer",
          "name": "customer",
          "type": "tuple"
        },
        {
          "components": [
            {
              "internalType": "string",
              "name": "name",
              "type": "string"
            },
            {
              "internalType": "string",
              "name": "contact",
              "type": "string"
            }
          ],
          "internalType": "struct P2PConveyance.DeliveryAgent",
          "name": "deliveryAgent",
          "type": "tuple"
        },
        {
          "internalType": "uint256",
          "name": "restPrice",
          "type": "uint256"
        },
        {
          "internalType": "uint256",
          "name": "delPrice",
          "type": "uint256"
        },
        {
          "internalType": "address",
          "name": "_restaurant",
          "type": "address"
        },
        {
          "internalType": "address",
          "name": "_deliveryAgent",
          "type": "address"
        }
      ],
      "name": "confirmOrderSubmission",
      "outputs": [
        {
          "internalType": "uint256",
          "name": "",
          "type": "uint256"
        }
      ],
      "stateMutability": "payable",
      "type": "function"
    },
    {
      "inputs": [],
      "name": "getContractBalance",
      "outputs": [
        {
          "internalType": "uint256",
          "name": "",
          "type": "uint256"
        }
      ],
      "stateMutability": "view",
      "type": "function"
    },
    {
      "inputs": [],
      "name": "getCounter",
      "outputs": [
        {
          "internalType": "uint256",
          "name": "",
          "type": "uint256"
        }
      ],
      "stateMutability": "view",
      "type": "function"
    },
    {
      "inputs": [
        {
          "internalType": "address",
          "name": "_deliveryAgent",
          "type": "address"
        }
      ],
      "name": "getDeliveryAgentOwedBalance",
      "outputs": [
        {
          "internalType": "uint256",
          "name": "",
          "type": "uint256"
        }
      ],
      "stateMutability": "view",
      "type": "function"
    },
    {
      "inputs": [
        {
          "internalType": "uint256",
          "name": "id",
          "type": "uint256"
        }
      ],
      "name": "getOrder",
      "outputs": [
        {
          "components": [
            {
              "internalType": "uint256",
              "name": "id",
              "type": "uint256"
            },
            {
              "components": [
                {
                  "internalType": "string",
                  "name": "itemName",
                  "type": "string"
                },
                {
                  "internalType": "uint256",
                  "name": "itemQuantity",
                  "type": "uint256"
                },
                {
                  "internalType": "uint256",
                  "name": "itemPrice",
                  "type": "uint256"
                }
              ],
              "internalType": "struct P2PConveyance.Item[]",
              "name": "items",
              "type": "tuple[]"
            },
            {
              "components": [
                {
                  "internalType": "string",
                  "name": "name",
                  "type": "string"
                },
                {
                  "internalType": "string",
                  "name": "lat",
                  "type": "string"
                },
                {
                  "internalType": "string",
                  "name": "long",
                  "type": "string"
                },
                {
                  "internalType": "string",
                  "name": "contact",
                  "type": "string"
                }
              ],
              "internalType": "struct P2PConveyance.Restaurant",
              "name": "restaurant",
              "type": "tuple"
            },
            {
              "components": [
                {
                  "internalType": "string",
                  "name": "name",
                  "type": "string"
                },
                {
                  "internalType": "string",
                  "name": "lat",
                  "type": "string"
                },
                {
                  "internalType": "string",
                  "name": "long",
                  "type": "string"
                },
                {
                  "internalType": "string",
                  "name": "contact",
                  "type": "string"
                }
              ],
              "internalType": "struct P2PConveyance.Customer",
              "name": "customer",
              "type": "tuple"
            },
            {
              "components": [
                {
                  "internalType": "string",
                  "name": "name",
                  "type": "string"
                },
                {
                  "internalType": "string",
                  "name": "contact",
                  "type": "string"
                }
              ],
              "internalType": "struct P2PConveyance.DeliveryAgent",
              "name": "deliveryAgent",
              "type": "tuple"
            },
            {
              "internalType": "uint256",
              "name": "restPrice",
              "type": "uint256"
            },
            {
              "internalType": "uint256",
              "name": "delPrice",
              "type": "uint256"
            },
            {
              "internalType": "bool",
              "name": "hasBeenDelivered",
              "type": "bool"
            }
          ],
          "internalType": "struct P2PConveyance.OrderInfo",
          "name": "",
          "type": "tuple"
        }
      ],
      "stateMutability": "view",
      "type": "function"
    },
    {
      "inputs": [
        {
          "internalType": "uint256",
          "name": "id",
          "type": "uint256"
        }
      ],
      "name": "getOrderHasBeenDelivered",
      "outputs": [
        {
          "internalType": "bool",
          "name": "",
          "type": "bool"
        }
      ],
      "stateMutability": "view",
      "type": "function"
    }
  ],
  "bytecode": "0x608060405234801561001057600080fd5b5060008081905550612112806100276000396000f3fe6080604052600436106100705760003560e01c80638ada066e1161004e5780638ada066e146100f9578063c1c9234514610124578063d09ef24114610154578063e06dcb171461019157610070565b80630b5d0df0146100755780636655d6ed146100b25780636f9fb98a146100ce575b600080fd5b34801561008157600080fd5b5061009c6004803603810190610097919061156a565b6101ce565b6040516100a99190611bb7565b60405180910390f35b6100cc60048036038101906100c791906116bd565b610217565b005b3480156100da57600080fd5b506100e361045c565b6040516100f09190611bb7565b60405180910390f35b34801561010557600080fd5b5061010e610464565b60405161011b9190611bb7565b60405180910390f35b61013e60048036038101906101399190611597565b61046d565b60405161014b9190611bb7565b60405180910390f35b34801561016057600080fd5b5061017b600480360381019061017691906116bd565b610809565b6040516101889190611b95565b60405180910390f35b34801561019d57600080fd5b506101b860048036038101906101b391906116bd565b610fa9565b6040516101c59190611b1a565b60405180910390f35b6000600260008373ffffffffffffffffffffffffffffffffffffffff1673ffffffffffffffffffffffffffffffffffffffff168152602001908152602001600020549050919050565b6000600260003373ffffffffffffffffffffffffffffffffffffffff1673ffffffffffffffffffffffffffffffffffffffff1681526020019081526020016000205411610299576040517f08c379a000000000000000000000000000000000000000000000000000000000815260040161029090611b55565b60405180910390fd5b6001806000838152602001908152602001600020600e0160006101000a81548160ff0219169083151502179055506000600260003373ffffffffffffffffffffffffffffffffffffffff1673ffffffffffffffffffffffffffffffffffffffff1681526020019081526020016000205490503373ffffffffffffffffffffffffffffffffffffffff166108fc60016000858152602001908152602001600020600d01549081150290604051600060405180830381858888f19350505050158015610367573d6000803e3d6000fd5b5060016000838152602001908152602001600020600d01548161038a9190611d8d565b905080600260003373ffffffffffffffffffffffffffffffffffffffff1673ffffffffffffffffffffffffffffffffffffffff168152602001908152602001600020819055507f83ebcd26b4dac90a9a02b29a74682e9aaf29b5f44660932d7890cba266a5bae482600160008581526020019081526020016000206002016000016001600086815260200190815260200160002060060160000160016000878152602001908152602001600020600a016000016001604051610450959493929190611bd2565b60405180910390a15050565b600047905090565b60008054905090565b600034848661047c9190611d37565b146104bc576040517f08c379a00000000000000000000000000000000000000000000000000000000081526004016104b390611b35565b60405180910390fd5b60006001600080548152602001908152602001600020905060005b8a5181101561056e57816001018b82815181106104f7576104f6611f55565b5b602002602001015190806001815401808255809150506001900390600052602060002090600302016000909190919091506000820151816000019080519060200190610544929190610fd6565b5060208201518160010155604082015181600201555050808061056690611eae565b9150506104d7565b5088816002016000820151816000019080519060200190610590929190610fd6565b5060208201518160010190805190602001906105ad929190610fd6565b5060408201518160020190805190602001906105ca929190610fd6565b5060608201518160030190805190602001906105e7929190610fd6565b509050508681600a01600082015181600001908051906020019061060c929190610fd6565b506020820151816001019080519060200190610629929190610fd6565b509050508781600601600082015181600001908051906020019061064e929190610fd6565b50602082015181600101908051906020019061066b929190610fd6565b506040820151816002019080519060200190610688929190610fd6565b5060608201518160030190805190602001906106a5929190610fd6565b509050508581600c01819055508481600d0181905550600081600e0160006101000a81548160ff02191690831515021790555060005481600001819055508373ffffffffffffffffffffffffffffffffffffffff166108fc879081150290604051600060405180830381858888f19350505050158015610729573d6000803e3d6000fd5b5084600260008573ffffffffffffffffffffffffffffffffffffffff1673ffffffffffffffffffffffffffffffffffffffff16815260200190815260200160002060008282546107799190611d37565b925050819055507f83ebcd26b4dac90a9a02b29a74682e9aaf29b5f44660932d7890cba266a5bae4600054826002016000018360060160000184600a0160000160006040516107cc959493929190611bd2565b60405180910390a16000808154809291906107e690611eae565b919050555060016000546107fa9190611d8d565b91505098975050505050505050565b61081161105c565b6000548210610855576040517f08c379a000000000000000000000000000000000000000000000000000000000815260040161084c90611b75565b60405180910390fd5b60016000838152602001908152602001600020604051806101000160405290816000820154815260200160018201805480602002602001604051908101604052809291908181526020016000905b8282101561097b57838290600052602060002090600302016040518060600160405290816000820180546108d690611e4b565b80601f016020809104026020016040519081016040528092919081815260200182805461090290611e4b565b801561094f5780601f106109245761010080835404028352916020019161094f565b820191906000526020600020905b81548152906001019060200180831161093257829003601f168201915b5050505050815260200160018201548152602001600282015481525050815260200190600101906108a3565b505050508152602001600282016040518060800160405290816000820180546109a390611e4b565b80601f01602080910402602001604051908101604052809291908181526020018280546109cf90611e4b565b8015610a1c5780601f106109f157610100808354040283529160200191610a1c565b820191906000526020600020905b8154815290600101906020018083116109ff57829003601f168201915b50505050508152602001600182018054610a3590611e4b565b80601f0160208091040260200160405190810160405280929190818152602001828054610a6190611e4b565b8015610aae5780601f10610a8357610100808354040283529160200191610aae565b820191906000526020600020905b815481529060010190602001808311610a9157829003601f168201915b50505050508152602001600282018054610ac790611e4b565b80601f0160208091040260200160405190810160405280929190818152602001828054610af390611e4b565b8015610b405780601f10610b1557610100808354040283529160200191610b40565b820191906000526020600020905b815481529060010190602001808311610b2357829003601f168201915b50505050508152602001600382018054610b5990611e4b565b80601f0160208091040260200160405190810160405280929190818152602001828054610b8590611e4b565b8015610bd25780601f10610ba757610100808354040283529160200191610bd2565b820191906000526020600020905b815481529060010190602001808311610bb557829003601f168201915b505050505081525050815260200160068201604051806080016040529081600082018054610bff90611e4b565b80601f0160208091040260200160405190810160405280929190818152602001828054610c2b90611e4b565b8015610c785780601f10610c4d57610100808354040283529160200191610c78565b820191906000526020600020905b815481529060010190602001808311610c5b57829003601f168201915b50505050508152602001600182018054610c9190611e4b565b80601f0160208091040260200160405190810160405280929190818152602001828054610cbd90611e4b565b8015610d0a5780601f10610cdf57610100808354040283529160200191610d0a565b820191906000526020600020905b815481529060010190602001808311610ced57829003601f168201915b50505050508152602001600282018054610d2390611e4b565b80601f0160208091040260200160405190810160405280929190818152602001828054610d4f90611e4b565b8015610d9c5780601f10610d7157610100808354040283529160200191610d9c565b820191906000526020600020905b815481529060010190602001808311610d7f57829003601f168201915b50505050508152602001600382018054610db590611e4b565b80601f0160208091040260200160405190810160405280929190818152602001828054610de190611e4b565b8015610e2e5780601f10610e0357610100808354040283529160200191610e2e565b820191906000526020600020905b815481529060010190602001808311610e1157829003601f168201915b5050505050815250508152602001600a8201604051806040016040529081600082018054610e5b90611e4b565b80601f0160208091040260200160405190810160405280929190818152602001828054610e8790611e4b565b8015610ed45780601f10610ea957610100808354040283529160200191610ed4565b820191906000526020600020905b815481529060010190602001808311610eb757829003601f168201915b50505050508152602001600182018054610eed90611e4b565b80601f0160208091040260200160405190810160405280929190818152602001828054610f1990611e4b565b8015610f665780601f10610f3b57610100808354040283529160200191610f66565b820191906000526020600020905b815481529060010190602001808311610f4957829003601f168201915b5050505050815250508152602001600c8201548152602001600d8201548152602001600e820160009054906101000a900460ff1615151515815250509050919050565b600060016000838152602001908152602001600020600e0160009054906101000a900460ff169050919050565b828054610fe290611e4b565b90600052602060002090601f016020900481019282611004576000855561104b565b82601f1061101d57805160ff191683800117855561104b565b8280016001018555821561104b579182015b8281111561104a57825182559160200191906001019061102f565b5b50905061105891906110b5565b5090565b604051806101000160405280600081526020016060815260200161107e6110d2565b815260200161108b6110fa565b8152602001611098611122565b815260200160008152602001600081526020016000151581525090565b5b808211156110ce5760008160009055506001016110b6565b5090565b6040518060800160405280606081526020016060815260200160608152602001606081525090565b6040518060800160405280606081526020016060815260200160608152602001606081525090565b604051806040016040528060608152602001606081525090565b600061114f61114a84611c5f565b611c3a565b9050808382526020820190508285602086028201111561117257611171611fc2565b5b60005b858110156111c057813567ffffffffffffffff81111561119857611197611fb3565b5b8086016111a589826113ed565b85526020850194506020840193505050600181019050611175565b5050509392505050565b60006111dd6111d884611c8b565b611c3a565b9050828152602081018484840111156111f9576111f8611fc7565b5b611204848285611e09565b509392505050565b60008135905061121b816120ae565b92915050565b600082601f83011261123657611235611fb3565b5b813561124684826020860161113c565b91505092915050565b600082601f83011261126457611263611fb3565b5b81356112748482602086016111ca565b91505092915050565b60006080828403121561129357611292611fb8565b5b61129d6080611c3a565b9050600082013567ffffffffffffffff8111156112bd576112bc611fbd565b5b6112c98482850161124f565b600083015250602082013567ffffffffffffffff8111156112ed576112ec611fbd565b5b6112f98482850161124f565b602083015250604082013567ffffffffffffffff81111561131d5761131c611fbd565b5b6113298482850161124f565b604083015250606082013567ffffffffffffffff81111561134d5761134c611fbd565b5b6113598482850161124f565b60608301525092915050565b60006040828403121561137b5761137a611fb8565b5b6113856040611c3a565b9050600082013567ffffffffffffffff8111156113a5576113a4611fbd565b5b6113b18482850161124f565b600083015250602082013567ffffffffffffffff8111156113d5576113d4611fbd565b5b6113e18482850161124f565b60208301525092915050565b60006060828403121561140357611402611fb8565b5b61140d6060611c3a565b9050600082013567ffffffffffffffff81111561142d5761142c611fbd565b5b6114398482850161124f565b600083015250602061144d84828501611555565b602083015250604061146184828501611555565b60408301525092915050565b60006080828403121561148357611482611fb8565b5b61148d6080611c3a565b9050600082013567ffffffffffffffff8111156114ad576114ac611fbd565b5b6114b98482850161124f565b600083015250602082013567ffffffffffffffff8111156114dd576114dc611fbd565b5b6114e98482850161124f565b602083015250604082013567ffffffffffffffff81111561150d5761150c611fbd565b5b6115198482850161124f565b604083015250606082013567ffffffffffffffff81111561153d5761153c611fbd565b5b6115498482850161124f565b60608301525092915050565b600081359050611564816120c5565b92915050565b6000602082840312156115805761157f611fd1565b5b600061158e8482850161120c565b91505092915050565b600080600080600080600080610100898b0312156115b8576115b7611fd1565b5b600089013567ffffffffffffffff8111156115d6576115d5611fcc565b5b6115e28b828c01611221565b985050602089013567ffffffffffffffff81111561160357611602611fcc565b5b61160f8b828c0161146d565b975050604089013567ffffffffffffffff8111156116305761162f611fcc565b5b61163c8b828c0161127d565b965050606089013567ffffffffffffffff81111561165d5761165c611fcc565b5b6116698b828c01611365565b955050608061167a8b828c01611555565b94505060a061168b8b828c01611555565b93505060c061169c8b828c0161120c565b92505060e06116ad8b828c0161120c565b9150509295985092959890939650565b6000602082840312156116d3576116d2611fd1565b5b60006116e184828501611555565b91505092915050565b60006116f6838361196f565b905092915050565b600061170982611ce1565b6117138185611d04565b93508360208202850161172585611cbc565b8060005b85811015611761578484038952815161174285826116ea565b945061174d83611cf7565b925060208a01995050600181019050611729565b50829750879550505050505092915050565b61177c81611dd3565b82525050565b61178b81611dd3565b82525050565b600061179c82611cec565b6117a68185611d15565b93506117b6818560208601611e18565b6117bf81611fd6565b840191505092915050565b600081546117d781611e4b565b6117e18186611d26565b945060018216600081146117fc576001811461180e57611841565b60ff1983168652602086019350611841565b61181785611ccc565b60005b838110156118395781548189015260018201915060208101905061181a565b808801955050505b50505092915050565b6000611857603c83611d26565b915061186282611fe7565b604082019050919050565b600061187a602b83611d26565b915061188582612036565b604082019050919050565b600061189d600e83611d26565b91506118a882612085565b602082019050919050565b600060808301600083015184820360008601526118d08282611791565b915050602083015184820360208601526118ea8282611791565b915050604083015184820360408601526119048282611791565b9150506060830151848203606086015261191e8282611791565b9150508091505092915050565b600060408301600083015184820360008601526119488282611791565b915050602083015184820360208601526119628282611791565b9150508091505092915050565b6000606083016000830151848203600086015261198c8282611791565b91505060208301516119a16020860182611afc565b5060408301516119b46040860182611afc565b508091505092915050565b6000610100830160008301516119d86000860182611afc565b50602083015184820360208601526119f082826116fe565b91505060408301518482036040860152611a0a8282611a84565b91505060608301518482036060860152611a2482826118b3565b91505060808301518482036080860152611a3e828261192b565b91505060a0830151611a5360a0860182611afc565b5060c0830151611a6660c0860182611afc565b5060e0830151611a7960e0860182611773565b508091505092915050565b60006080830160008301518482036000860152611aa18282611791565b91505060208301518482036020860152611abb8282611791565b91505060408301518482036040860152611ad58282611791565b91505060608301518482036060860152611aef8282611791565b9150508091505092915050565b611b0581611dff565b82525050565b611b1481611dff565b82525050565b6000602082019050611b2f6000830184611782565b92915050565b60006020820190508181036000830152611b4e8161184a565b9050919050565b60006020820190508181036000830152611b6e8161186d565b9050919050565b60006020820190508181036000830152611b8e81611890565b9050919050565b60006020820190508181036000830152611baf81846119bf565b905092915050565b6000602082019050611bcc6000830184611b0b565b92915050565b600060a082019050611be76000830188611b0b565b8181036020830152611bf981876117ca565b90508181036040830152611c0d81866117ca565b90508181036060830152611c2181856117ca565b9050611c306080830184611782565b9695505050505050565b6000611c44611c55565b9050611c508282611e7d565b919050565b6000604051905090565b600067ffffffffffffffff821115611c7a57611c79611f84565b5b602082029050602081019050919050565b600067ffffffffffffffff821115611ca657611ca5611f84565b5b611caf82611fd6565b9050602081019050919050565b6000819050602082019050919050565b60008190508160005260206000209050919050565b600081519050919050565b600081519050919050565b6000602082019050919050565b600082825260208201905092915050565b600082825260208201905092915050565b600082825260208201905092915050565b6000611d4282611dff565b9150611d4d83611dff565b9250827fffffffffffffffffffffffffffffffffffffffffffffffffffffffffffffffff03821115611d8257611d81611ef7565b5b828201905092915050565b6000611d9882611dff565b9150611da383611dff565b925082821015611db657611db5611ef7565b5b828203905092915050565b6000611dcc82611ddf565b9050919050565b60008115159050919050565b600073ffffffffffffffffffffffffffffffffffffffff82169050919050565b6000819050919050565b82818337600083830152505050565b60005b83811015611e36578082015181840152602081019050611e1b565b83811115611e45576000848401525b50505050565b60006002820490506001821680611e6357607f821691505b60208210811415611e7757611e76611f26565b5b50919050565b611e8682611fd6565b810181811067ffffffffffffffff82111715611ea557611ea4611f84565b5b80604052505050565b6000611eb982611dff565b91507fffffffffffffffffffffffffffffffffffffffffffffffffffffffffffffffff821415611eec57611eeb611ef7565b5b600182019050919050565b7f4e487b7100000000000000000000000000000000000000000000000000000000600052601160045260246000fd5b7f4e487b7100000000000000000000000000000000000000000000000000000000600052602260045260246000fd5b7f4e487b7100000000000000000000000000000000000000000000000000000000600052603260045260246000fd5b7f4e487b7100000000000000000000000000000000000000000000000000000000600052604160045260246000fd5b600080fd5b600080fd5b600080fd5b600080fd5b600080fd5b600080fd5b600080fd5b6000601f19601f8301169050919050565b7f596f75206d757374207061792074686520657861637420616d6f756e7420726560008201527f71756972656420666f72206f7264657220636f6d706c6574696f6e2100000000602082015250565b7f596f75206861766520616c7265616479206265656e207061696420746865206f60008201527f77656420616d6f756e7421000000000000000000000000000000000000000000602082015250565b7f4e6f2073756368204f7264657221000000000000000000000000000000000000600082015250565b6120b781611dc1565b81146120c257600080fd5b50565b6120ce81611dff565b81146120d957600080fd5b5056fea2646970667358221220783c0633467e1a2f484710b9cd2c01be1e48d992f5735b98e76140309fda89b564736f6c63430008070033",
  "linkReferences": {},
  "deployedLinkReferences": {}
}